{
  "_format": "hh-sol-artifact-1",
  "contractName": "FederatedModelStorage",
  "sourceName": "contracts/FederatedToken.sol",
  "abi": [
    {
      "inputs": [],
      "stateMutability": "nonpayable",
      "type": "constructor"
    },
    {
      "inputs": [],
      "name": "getUsers",
      "outputs": [
        {
          "internalType": "address[]",
          "name": "",
          "type": "address[]"
        }
      ],
      "stateMutability": "nonpayable",
      "type": "function"
    },
    {
      "inputs": [
        {
          "internalType": "address",
          "name": "",
          "type": "address"
        }
      ],
      "name": "modelCIDs",
      "outputs": [
        {
          "internalType": "string",
          "name": "",
          "type": "string"
        }
      ],
      "stateMutability": "view",
      "type": "function"
    },
    {
      "inputs": [
        {
          "internalType": "string",
          "name": "cid",
          "type": "string"
        }
      ],
      "name": "storeModelCID",
      "outputs": [],
      "stateMutability": "nonpayable",
      "type": "function"
    },
    {
      "inputs": [
        {
          "internalType": "uint256",
          "name": "",
          "type": "uint256"
        }
      ],
      "name": "users",
      "outputs": [
        {
          "internalType": "address",
          "name": "",
          "type": "address"
        }
      ],
      "stateMutability": "view",
      "type": "function"
    }
  ],
  "bytecode": "0x6080604052348015600f57600080fd5b50610b1e8061001f6000396000f3fe608060405234801561001057600080fd5b506004361061004b5760003560e01c8062ce8e3e14610050578063365b98b21461006e5780633d30cedc1461009e5780635438f63d146100ba575b600080fd5b6100586100ea565b604051610065919061048f565b60405180910390f35b610088600480360381019061008391906104fb565b610178565b6040516100959190610537565b60405180910390f35b6100b860048036038101906100b39190610698565b6101b7565b005b6100d460048036038101906100cf919061070d565b6102ff565b6040516100e191906107b9565b60405180910390f35b6060600180548060200260200160405190810160405280929190818152602001828054801561016e57602002820191906000526020600020905b8160009054906101000a900473ffffffffffffffffffffffffffffffffffffffff1673ffffffffffffffffffffffffffffffffffffffff1681526020019060010190808311610124575b5050505050905090565b6001818154811061018857600080fd5b906000526020600020016000915054906101000a900473ffffffffffffffffffffffffffffffffffffffff1681565b806000803373ffffffffffffffffffffffffffffffffffffffff1673ffffffffffffffffffffffffffffffffffffffff168152602001908152602001600020908161020291906109e7565b5060005b600180549050811015610297573373ffffffffffffffffffffffffffffffffffffffff166001828154811061023e5761023d610ab9565b5b9060005260206000200160009054906101000a900473ffffffffffffffffffffffffffffffffffffffff1673ffffffffffffffffffffffffffffffffffffffff160361028a57506102fc565b8080600101915050610206565b506001339080600181540180825580915050600190039060005260206000200160009091909190916101000a81548173ffffffffffffffffffffffffffffffffffffffff021916908373ffffffffffffffffffffffffffffffffffffffff1602179055505b50565b6000602052806000526040600020600091509050805461031e9061080a565b80601f016020809104026020016040519081016040528092919081815260200182805461034a9061080a565b80156103975780601f1061036c57610100808354040283529160200191610397565b820191906000526020600020905b81548152906001019060200180831161037a57829003601f168201915b505050505081565b600081519050919050565b600082825260208201905092915050565b6000819050602082019050919050565b600073ffffffffffffffffffffffffffffffffffffffff82169050919050565b60006103f6826103cb565b9050919050565b610406816103eb565b82525050565b600061041883836103fd565b60208301905092915050565b6000602082019050919050565b600061043c8261039f565b61044681856103aa565b9350610451836103bb565b8060005b83811015610482578151610469888261040c565b975061047483610424565b925050600181019050610455565b5085935050505092915050565b600060208201905081810360008301526104a98184610431565b905092915050565b6000604051905090565b600080fd5b600080fd5b6000819050919050565b6104d8816104c5565b81146104e357600080fd5b50565b6000813590506104f5816104cf565b92915050565b600060208284031215610511576105106104bb565b5b600061051f848285016104e6565b91505092915050565b610531816103eb565b82525050565b600060208201905061054c6000830184610528565b92915050565b600080fd5b600080fd5b6000601f19601f8301169050919050565b7f4e487b7100000000000000000000000000000000000000000000000000000000600052604160045260246000fd5b6105a58261055c565b810181811067ffffffffffffffff821117156105c4576105c361056d565b5b80604052505050565b60006105d76104b1565b90506105e3828261059c565b919050565b600067ffffffffffffffff8211156106035761060261056d565b5b61060c8261055c565b9050602081019050919050565b82818337600083830152505050565b600061063b610636846105e8565b6105cd565b90508281526020810184848401111561065757610656610557565b5b610662848285610619565b509392505050565b600082601f83011261067f5761067e610552565b5b813561068f848260208601610628565b91505092915050565b6000602082840312156106ae576106ad6104bb565b5b600082013567ffffffffffffffff8111156106cc576106cb6104c0565b5b6106d88482850161066a565b91505092915050565b6106ea816103eb565b81146106f557600080fd5b50565b600081359050610707816106e1565b92915050565b600060208284031215610723576107226104bb565b5b6000610731848285016106f8565b91505092915050565b600081519050919050565b600082825260208201905092915050565b60005b83811015610774578082015181840152602081019050610759565b60008484015250505050565b600061078b8261073a565b6107958185610745565b93506107a5818560208601610756565b6107ae8161055c565b840191505092915050565b600060208201905081810360008301526107d38184610780565b905092915050565b7f4e487b7100000000000000000000000000000000000000000000000000000000600052602260045260246000fd5b6000600282049050600182168061082257607f821691505b602082108103610835576108346107db565b5b50919050565b60008190508160005260206000209050919050565b60006020601f8301049050919050565b600082821b905092915050565b60006008830261089d7fffffffffffffffffffffffffffffffffffffffffffffffffffffffffffffffff82610860565b6108a78683610860565b95508019841693508086168417925050509392505050565b6000819050919050565b60006108e46108df6108da846104c5565b6108bf565b6104c5565b9050919050565b6000819050919050565b6108fe836108c9565b61091261090a826108eb565b84845461086d565b825550505050565b600090565b61092761091a565b6109328184846108f5565b505050565b5b818110156109565761094b60008261091f565b600181019050610938565b5050565b601f82111561099b5761096c8161083b565b61097584610850565b81016020851015610984578190505b61099861099085610850565b830182610937565b50505b505050565b600082821c905092915050565b60006109be600019846008026109a0565b1980831691505092915050565b60006109d783836109ad565b9150826002028217905092915050565b6109f08261073a565b67ffffffffffffffff811115610a0957610a0861056d565b5b610a13825461080a565b610a1e82828561095a565b600060209050601f831160018114610a515760008415610a3f578287015190505b610a4985826109cb565b865550610ab1565b601f198416610a5f8661083b565b60005b82811015610a8757848901518255600182019150602085019450602081019050610a62565b86831015610aa45784890151610aa0601f8916826109ad565b8355505b6001600288020188555050505b505050505050565b7f4e487b7100000000000000000000000000000000000000000000000000000000600052603260045260246000fdfea2646970667358221220a56719562d4301ea0b2deaa7757a6439ffddb0512e3378de91f1c4fe8a2c150064736f6c634300081b0033",
  "linkReferences": {},
  "deployedLinkReferences": {}
}