{
  "_format": "hh-sol-artifact-1",
  "contractName": "FederatedToken",
  "sourceName": "contracts/FederatedToken.sol",
  "abi": [
    {
      "inputs": [
        {
          "internalType": "string",
          "name": "name",
          "type": "string"
        },
        {
          "internalType": "string",
          "name": "symbol",
          "type": "string"
        }
      ],
      "stateMutability": "nonpayable",
      "type": "constructor"
    },
    {
      "inputs": [
        {
          "internalType": "address",
          "name": "spender",
          "type": "address"
        },
        {
          "internalType": "uint256",
          "name": "allowance",
          "type": "uint256"
        },
        {
          "internalType": "uint256",
          "name": "needed",
          "type": "uint256"
        }
      ],
      "name": "ERC20InsufficientAllowance",
      "type": "error"
    },
    {
      "inputs": [
        {
          "internalType": "address",
          "name": "sender",
          "type": "address"
        },
        {
          "internalType": "uint256",
          "name": "balance",
          "type": "uint256"
        },
        {
          "internalType": "uint256",
          "name": "needed",
          "type": "uint256"
        }
      ],
      "name": "ERC20InsufficientBalance",
      "type": "error"
    },
    {
      "inputs": [
        {
          "internalType": "address",
          "name": "approver",
          "type": "address"
        }
      ],
      "name": "ERC20InvalidApprover",
      "type": "error"
    },
    {
      "inputs": [
        {
          "internalType": "address",
          "name": "receiver",
          "type": "address"
        }
      ],
      "name": "ERC20InvalidReceiver",
      "type": "error"
    },
    {
      "inputs": [
        {
          "internalType": "address",
          "name": "sender",
          "type": "address"
        }
      ],
      "name": "ERC20InvalidSender",
      "type": "error"
    },
    {
      "inputs": [
        {
          "internalType": "address",
          "name": "spender",
          "type": "address"
        }
      ],
      "name": "ERC20InvalidSpender",
      "type": "error"
    },
    {
      "anonymous": false,
      "inputs": [
        {
          "indexed": true,
          "internalType": "address",
          "name": "owner",
          "type": "address"
        },
        {
          "indexed": true,
          "internalType": "address",
          "name": "spender",
          "type": "address"
        },
        {
          "indexed": false,
          "internalType": "uint256",
          "name": "value",
          "type": "uint256"
        }
      ],
      "name": "Approval",
      "type": "event"
    },
    {
      "anonymous": false,
      "inputs": [
        {
          "indexed": true,
          "internalType": "uint256",
          "name": "round",
          "type": "uint256"
        },
        {
          "indexed": false,
          "internalType": "string",
          "name": "aggregatedUpdateHash",
          "type": "string"
        }
      ],
      "name": "ModelUpdateAggregated",
      "type": "event"
    },
    {
      "anonymous": false,
      "inputs": [
        {
          "indexed": true,
          "internalType": "address",
          "name": "nodeAddress",
          "type": "address"
        },
        {
          "indexed": true,
          "internalType": "uint256",
          "name": "round",
          "type": "uint256"
        },
        {
          "indexed": false,
          "internalType": "string",
          "name": "updateHash",
          "type": "string"
        }
      ],
      "name": "ModelUpdateSubmitted",
      "type": "event"
    },
    {
      "anonymous": false,
      "inputs": [
        {
          "indexed": true,
          "internalType": "address",
          "name": "from",
          "type": "address"
        },
        {
          "indexed": true,
          "internalType": "address",
          "name": "to",
          "type": "address"
        },
        {
          "indexed": false,
          "internalType": "uint256",
          "name": "value",
          "type": "uint256"
        }
      ],
      "name": "Transfer",
      "type": "event"
    },
    {
      "inputs": [
        {
          "internalType": "string",
          "name": "_aggregatedUpdateHash",
          "type": "string"
        }
      ],
      "name": "aggregateUpdates",
      "outputs": [],
      "stateMutability": "nonpayable",
      "type": "function"
    },
    {
      "inputs": [
        {
          "internalType": "address",
          "name": "owner",
          "type": "address"
        },
        {
          "internalType": "address",
          "name": "spender",
          "type": "address"
        }
      ],
      "name": "allowance",
      "outputs": [
        {
          "internalType": "uint256",
          "name": "",
          "type": "uint256"
        }
      ],
      "stateMutability": "view",
      "type": "function"
    },
    {
      "inputs": [
        {
          "internalType": "address",
          "name": "spender",
          "type": "address"
        },
        {
          "internalType": "uint256",
          "name": "value",
          "type": "uint256"
        }
      ],
      "name": "approve",
      "outputs": [
        {
          "internalType": "bool",
          "name": "",
          "type": "bool"
        }
      ],
      "stateMutability": "nonpayable",
      "type": "function"
    },
    {
      "inputs": [
        {
          "internalType": "address",
          "name": "account",
          "type": "address"
        }
      ],
      "name": "balanceOf",
      "outputs": [
        {
          "internalType": "uint256",
          "name": "",
          "type": "uint256"
        }
      ],
      "stateMutability": "view",
      "type": "function"
    },
    {
      "inputs": [],
      "name": "currentRound",
      "outputs": [
        {
          "internalType": "uint256",
          "name": "",
          "type": "uint256"
        }
      ],
      "stateMutability": "view",
      "type": "function"
    },
    {
      "inputs": [],
      "name": "decimals",
      "outputs": [
        {
          "internalType": "uint8",
          "name": "",
          "type": "uint8"
        }
      ],
      "stateMutability": "view",
      "type": "function"
    },
    {
      "inputs": [
        {
          "internalType": "uint256",
          "name": "_round",
          "type": "uint256"
        },
        {
          "internalType": "uint256",
          "name": "_index",
          "type": "uint256"
        }
      ],
      "name": "getModelUpdate",
      "outputs": [
        {
          "internalType": "address",
          "name": "",
          "type": "address"
        },
        {
          "internalType": "string",
          "name": "",
          "type": "string"
        },
        {
          "internalType": "uint256",
          "name": "",
          "type": "uint256"
        }
      ],
      "stateMutability": "view",
      "type": "function"
    },
    {
      "inputs": [
        {
          "internalType": "uint256",
          "name": "_round",
          "type": "uint256"
        }
      ],
      "name": "getRoundUpdatesCount",
      "outputs": [
        {
          "internalType": "uint256",
          "name": "",
          "type": "uint256"
        }
      ],
      "stateMutability": "view",
      "type": "function"
    },
    {
      "inputs": [],
      "name": "name",
      "outputs": [
        {
          "internalType": "string",
          "name": "",
          "type": "string"
        }
      ],
      "stateMutability": "view",
      "type": "function"
    },
    {
      "inputs": [
        {
          "internalType": "uint256",
          "name": "",
          "type": "uint256"
        },
        {
          "internalType": "uint256",
          "name": "",
          "type": "uint256"
        }
      ],
      "name": "roundUpdates",
      "outputs": [
        {
          "internalType": "address",
          "name": "nodeAddress",
          "type": "address"
        },
        {
          "internalType": "string",
          "name": "updateHash",
          "type": "string"
        },
        {
          "internalType": "uint256",
          "name": "timestamp",
          "type": "uint256"
        }
      ],
      "stateMutability": "view",
      "type": "function"
    },
    {
      "inputs": [
        {
          "internalType": "string",
          "name": "_updateHash",
          "type": "string"
        }
      ],
      "name": "submitModelUpdate",
      "outputs": [],
      "stateMutability": "nonpayable",
      "type": "function"
    },
    {
      "inputs": [],
      "name": "symbol",
      "outputs": [
        {
          "internalType": "string",
          "name": "",
          "type": "string"
        }
      ],
      "stateMutability": "view",
      "type": "function"
    },
    {
      "inputs": [],
      "name": "totalSupply",
      "outputs": [
        {
          "internalType": "uint256",
          "name": "",
          "type": "uint256"
        }
      ],
      "stateMutability": "view",
      "type": "function"
    },
    {
      "inputs": [
        {
          "internalType": "address",
          "name": "to",
          "type": "address"
        },
        {
          "internalType": "uint256",
          "name": "value",
          "type": "uint256"
        }
      ],
      "name": "transfer",
      "outputs": [
        {
          "internalType": "bool",
          "name": "",
          "type": "bool"
        }
      ],
      "stateMutability": "nonpayable",
      "type": "function"
    },
    {
      "inputs": [
        {
          "internalType": "address",
          "name": "from",
          "type": "address"
        },
        {
          "internalType": "address",
          "name": "to",
          "type": "address"
        },
        {
          "internalType": "uint256",
          "name": "value",
          "type": "uint256"
        }
      ],
      "name": "transferFrom",
      "outputs": [
        {
          "internalType": "bool",
          "name": "",
          "type": "bool"
        }
      ],
      "stateMutability": "nonpayable",
      "type": "function"
    }
  ],
  "bytecode": "0x608060405234801561001057600080fd5b50604051612059380380612059833981810160405281019061003291906101da565b818181600390816100439190610473565b5080600490816100539190610473565b50505060016005819055505050610545565b6000604051905090565b600080fd5b600080fd5b600080fd5b600080fd5b6000601f19601f8301169050919050565b7f4e487b7100000000000000000000000000000000000000000000000000000000600052604160045260246000fd5b6100cc82610083565b810181811067ffffffffffffffff821117156100eb576100ea610094565b5b80604052505050565b60006100fe610065565b905061010a82826100c3565b919050565b600067ffffffffffffffff82111561012a57610129610094565b5b61013382610083565b9050602081019050919050565b60005b8381101561015e578082015181840152602081019050610143565b60008484015250505050565b600061017d6101788461010f565b6100f4565b9050828152602081018484840111156101995761019861007e565b5b6101a4848285610140565b509392505050565b600082601f8301126101c1576101c0610079565b5b81516101d184826020860161016a565b91505092915050565b600080604083850312156101f1576101f061006f565b5b600083015167ffffffffffffffff81111561020f5761020e610074565b5b61021b858286016101ac565b925050602083015167ffffffffffffffff81111561023c5761023b610074565b5b610248858286016101ac565b9150509250929050565b600081519050919050565b7f4e487b7100000000000000000000000000000000000000000000000000000000600052602260045260246000fd5b600060028204905060018216806102a457607f821691505b6020821081036102b7576102b661025d565b5b50919050565b60008190508160005260206000209050919050565b60006020601f8301049050919050565b600082821b905092915050565b60006008830261031f7fffffffffffffffffffffffffffffffffffffffffffffffffffffffffffffffff826102e2565b61032986836102e2565b95508019841693508086168417925050509392505050565b6000819050919050565b6000819050919050565b600061037061036b61036684610341565b61034b565b610341565b9050919050565b6000819050919050565b61038a83610355565b61039e61039682610377565b8484546102ef565b825550505050565b600090565b6103b36103a6565b6103be818484610381565b505050565b5b818110156103e2576103d76000826103ab565b6001810190506103c4565b5050565b601f821115610427576103f8816102bd565b610401846102d2565b81016020851015610410578190505b61042461041c856102d2565b8301826103c3565b50505b505050565b600082821c905092915050565b600061044a6000198460080261042c565b1980831691505092915050565b60006104638383610439565b9150826002028217905092915050565b61047c82610252565b67ffffffffffffffff81111561049557610494610094565b5b61049f825461028c565b6104aa8282856103e6565b600060209050601f8311600181146104dd57600084156104cb578287015190505b6104d58582610457565b86555061053d565b601f1984166104eb866102bd565b60005b82811015610513578489015182556001820191506020850194506020810190506104ee565b86831015610530578489015161052c601f891682610439565b8355505b6001600288020188555050505b505050505050565b611b05806105546000396000f3fe608060405234801561001057600080fd5b50600436106100f55760003560e01c80634c253b2b11610097578063a9059cbb11610066578063a9059cbb1461029e578063b7e67d01146102ce578063d2ac8bea146102ea578063dd62ed3e1461031c576100f5565b80634c253b2b1461020257806370a08231146102325780638a19c8bc1461026257806395d89b4114610280576100f5565b806318160ddd116100d357806318160ddd1461017a57806323b872dd14610198578063313ce567146101c857806340a36cbf146101e6576100f5565b806306fdde03146100fa578063095ea7b3146101185780631051890014610148575b600080fd5b61010261034c565b60405161010f91906110c2565b60405180910390f35b610132600480360381019061012d919061118c565b6103de565b60405161013f91906111e7565b60405180910390f35b610162600480360381019061015d9190611202565b610401565b60405161017193929190611260565b60405180910390f35b6101826105b0565b60405161018f919061129e565b60405180910390f35b6101b260048036038101906101ad91906112b9565b6105ba565b6040516101bf91906111e7565b60405180910390f35b6101d06105e9565b6040516101dd9190611328565b60405180910390f35b61020060048036038101906101fb9190611478565b6105f2565b005b61021c600480360381019061021791906114c1565b610762565b604051610229919061129e565b60405180910390f35b61024c600480360381019061024791906114ee565b610782565b604051610259919061129e565b60405180910390f35b61026a6107ca565b604051610277919061129e565b60405180910390f35b6102886107d0565b60405161029591906110c2565b60405180910390f35b6102b860048036038101906102b3919061118c565b610862565b6040516102c591906111e7565b60405180910390f35b6102e860048036038101906102e39190611478565b610885565b005b61030460048036038101906102ff9190611202565b61091e565b60405161031393929190611260565b60405180910390f35b6103366004803603810190610331919061151b565b610a0d565b604051610343919061129e565b60405180910390f35b60606003805461035b9061158a565b80601f01602080910402602001604051908101604052809291908181526020018280546103879061158a565b80156103d45780601f106103a9576101008083540402835291602001916103d4565b820191906000526020600020905b8154815290600101906020018083116103b757829003601f168201915b5050505050905090565b6000806103e9610a94565b90506103f6818585610a9c565b600191505092915050565b6000606060006006600086815260200190815260200160002080549050841061045f576040517f08c379a000000000000000000000000000000000000000000000000000000000815260040161045690611607565b60405180910390fd5b600060066000878152602001908152602001600020858154811061048657610485611627565b5b90600052602060002090600302016040518060600160405290816000820160009054906101000a900473ffffffffffffffffffffffffffffffffffffffff1673ffffffffffffffffffffffffffffffffffffffff1673ffffffffffffffffffffffffffffffffffffffff1681526020016001820180546105059061158a565b80601f01602080910402602001604051908101604052809291908181526020018280546105319061158a565b801561057e5780601f106105535761010080835404028352916020019161057e565b820191906000526020600020905b81548152906001019060200180831161056157829003601f168201915b505050505081526020016002820154815250509050806000015181602001518260400151935093509350509250925092565b6000600254905090565b6000806105c5610a94565b90506105d2858285610aae565b6105dd858585610b42565b60019150509392505050565b60006012905090565b6000815111610636576040517f08c379a000000000000000000000000000000000000000000000000000000000815260040161062d906116a2565b60405180910390fd5b60066000600554815260200190815260200160002060405180606001604052803373ffffffffffffffffffffffffffffffffffffffff16815260200183815260200142815250908060018154018082558091505060019003906000526020600020906003020160009091909190915060008201518160000160006101000a81548173ffffffffffffffffffffffffffffffffffffffff021916908373ffffffffffffffffffffffffffffffffffffffff1602179055506020820151816001019081610701919061186e565b506040820151816002015550506005543373ffffffffffffffffffffffffffffffffffffffff167f43e7024a5d44dbb2893e21fa9e356bc93465ba074b2b4c5596872f4a98e879d08360405161075791906110c2565b60405180910390a350565b600060066000838152602001908152602001600020805490509050919050565b60008060008373ffffffffffffffffffffffffffffffffffffffff1673ffffffffffffffffffffffffffffffffffffffff168152602001908152602001600020549050919050565b60055481565b6060600480546107df9061158a565b80601f016020809104026020016040519081016040528092919081815260200182805461080b9061158a565b80156108585780601f1061082d57610100808354040283529160200191610858565b820191906000526020600020905b81548152906001019060200180831161083b57829003601f168201915b5050505050905090565b60008061086d610a94565b905061087a818585610b42565b600191505092915050565b60008151116108c9576040517f08c379a00000000000000000000000000000000000000000000000000000000081526004016108c0906119b2565b60405180910390fd5b6005547fba5d2de5e14325a30329cba12a8f7809a89761608da81731586df7fbd3678f2a826040516108fb91906110c2565b60405180910390a26005600081548092919061091690611a01565b919050555050565b6006602052816000526040600020818154811061093a57600080fd5b9060005260206000209060030201600091509150508060000160009054906101000a900473ffffffffffffffffffffffffffffffffffffffff16908060010180546109849061158a565b80601f01602080910402602001604051908101604052809291908181526020018280546109b09061158a565b80156109fd5780601f106109d2576101008083540402835291602001916109fd565b820191906000526020600020905b8154815290600101906020018083116109e057829003601f168201915b5050505050908060020154905083565b6000600160008473ffffffffffffffffffffffffffffffffffffffff1673ffffffffffffffffffffffffffffffffffffffff16815260200190815260200160002060008373ffffffffffffffffffffffffffffffffffffffff1673ffffffffffffffffffffffffffffffffffffffff16815260200190815260200160002054905092915050565b600033905090565b610aa98383836001610c36565b505050565b6000610aba8484610a0d565b90507fffffffffffffffffffffffffffffffffffffffffffffffffffffffffffffffff8114610b3c5781811015610b2c578281836040517ffb8f41b2000000000000000000000000000000000000000000000000000000008152600401610b2393929190611a49565b60405180910390fd5b610b3b84848484036000610c36565b5b50505050565b600073ffffffffffffffffffffffffffffffffffffffff168373ffffffffffffffffffffffffffffffffffffffff1603610bb45760006040517f96c6fd1e000000000000000000000000000000000000000000000000000000008152600401610bab9190611a80565b60405180910390fd5b600073ffffffffffffffffffffffffffffffffffffffff168273ffffffffffffffffffffffffffffffffffffffff1603610c265760006040517fec442f05000000000000000000000000000000000000000000000000000000008152600401610c1d9190611a80565b60405180910390fd5b610c31838383610e0d565b505050565b600073ffffffffffffffffffffffffffffffffffffffff168473ffffffffffffffffffffffffffffffffffffffff1603610ca85760006040517fe602df05000000000000000000000000000000000000000000000000000000008152600401610c9f9190611a80565b60405180910390fd5b600073ffffffffffffffffffffffffffffffffffffffff168373ffffffffffffffffffffffffffffffffffffffff1603610d1a5760006040517f94280d62000000000000000000000000000000000000000000000000000000008152600401610d119190611a80565b60405180910390fd5b81600160008673ffffffffffffffffffffffffffffffffffffffff1673ffffffffffffffffffffffffffffffffffffffff16815260200190815260200160002060008573ffffffffffffffffffffffffffffffffffffffff1673ffffffffffffffffffffffffffffffffffffffff168152602001908152602001600020819055508015610e07578273ffffffffffffffffffffffffffffffffffffffff168473ffffffffffffffffffffffffffffffffffffffff167f8c5be1e5ebec7d5bd14f71427d1e84f3dd0314c0f7b2291e5b200ac8c7c3b92584604051610dfe919061129e565b60405180910390a35b50505050565b600073ffffffffffffffffffffffffffffffffffffffff168373ffffffffffffffffffffffffffffffffffffffff1603610e5f578060026000828254610e539190611a9b565b92505081905550610f32565b60008060008573ffffffffffffffffffffffffffffffffffffffff1673ffffffffffffffffffffffffffffffffffffffff16815260200190815260200160002054905081811015610eeb578381836040517fe450d38c000000000000000000000000000000000000000000000000000000008152600401610ee293929190611a49565b60405180910390fd5b8181036000808673ffffffffffffffffffffffffffffffffffffffff1673ffffffffffffffffffffffffffffffffffffffff16815260200190815260200160002081905550505b600073ffffffffffffffffffffffffffffffffffffffff168273ffffffffffffffffffffffffffffffffffffffff1603610f7b5780600260008282540392505081905550610fc8565b806000808473ffffffffffffffffffffffffffffffffffffffff1673ffffffffffffffffffffffffffffffffffffffff168152602001908152602001600020600082825401925050819055505b8173ffffffffffffffffffffffffffffffffffffffff168373ffffffffffffffffffffffffffffffffffffffff167fddf252ad1be2c89b69c2b068fc378daa952ba7f163c4a11628f55a4df523b3ef83604051611025919061129e565b60405180910390a3505050565b600081519050919050565b600082825260208201905092915050565b60005b8381101561106c578082015181840152602081019050611051565b60008484015250505050565b6000601f19601f8301169050919050565b600061109482611032565b61109e818561103d565b93506110ae81856020860161104e565b6110b781611078565b840191505092915050565b600060208201905081810360008301526110dc8184611089565b905092915050565b6000604051905090565b600080fd5b600080fd5b600073ffffffffffffffffffffffffffffffffffffffff82169050919050565b6000611123826110f8565b9050919050565b61113381611118565b811461113e57600080fd5b50565b6000813590506111508161112a565b92915050565b6000819050919050565b61116981611156565b811461117457600080fd5b50565b60008135905061118681611160565b92915050565b600080604083850312156111a3576111a26110ee565b5b60006111b185828601611141565b92505060206111c285828601611177565b9150509250929050565b60008115159050919050565b6111e1816111cc565b82525050565b60006020820190506111fc60008301846111d8565b92915050565b60008060408385031215611219576112186110ee565b5b600061122785828601611177565b925050602061123885828601611177565b9150509250929050565b61124b81611118565b82525050565b61125a81611156565b82525050565b60006060820190506112756000830186611242565b81810360208301526112878185611089565b90506112966040830184611251565b949350505050565b60006020820190506112b36000830184611251565b92915050565b6000806000606084860312156112d2576112d16110ee565b5b60006112e086828701611141565b93505060206112f186828701611141565b925050604061130286828701611177565b9150509250925092565b600060ff82169050919050565b6113228161130c565b82525050565b600060208201905061133d6000830184611319565b92915050565b600080fd5b600080fd5b7f4e487b7100000000000000000000000000000000000000000000000000000000600052604160045260246000fd5b61138582611078565b810181811067ffffffffffffffff821117156113a4576113a361134d565b5b80604052505050565b60006113b76110e4565b90506113c3828261137c565b919050565b600067ffffffffffffffff8211156113e3576113e261134d565b5b6113ec82611078565b9050602081019050919050565b82818337600083830152505050565b600061141b611416846113c8565b6113ad565b90508281526020810184848401111561143757611436611348565b5b6114428482856113f9565b509392505050565b600082601f83011261145f5761145e611343565b5b813561146f848260208601611408565b91505092915050565b60006020828403121561148e5761148d6110ee565b5b600082013567ffffffffffffffff8111156114ac576114ab6110f3565b5b6114b88482850161144a565b91505092915050565b6000602082840312156114d7576114d66110ee565b5b60006114e584828501611177565b91505092915050565b600060208284031215611504576115036110ee565b5b600061151284828501611141565b91505092915050565b60008060408385031215611532576115316110ee565b5b600061154085828601611141565b925050602061155185828601611141565b9150509250929050565b7f4e487b7100000000000000000000000000000000000000000000000000000000600052602260045260246000fd5b600060028204905060018216806115a257607f821691505b6020821081036115b5576115b461155b565b5b50919050565b7f496e76616c696420696e64657820666f7220726f756e64207570646174657300600082015250565b60006115f1601f8361103d565b91506115fc826115bb565b602082019050919050565b60006020820190508181036000830152611620816115e4565b9050919050565b7f4e487b7100000000000000000000000000000000000000000000000000000000600052603260045260246000fd5b7f4d6f64656c207570646174652063616e6e6f7420626520656d70747900000000600082015250565b600061168c601c8361103d565b915061169782611656565b602082019050919050565b600060208201905081810360008301526116bb8161167f565b9050919050565b60008190508160005260206000209050919050565b60006020601f8301049050919050565b600082821b905092915050565b6000600883026117247fffffffffffffffffffffffffffffffffffffffffffffffffffffffffffffffff826116e7565b61172e86836116e7565b95508019841693508086168417925050509392505050565b6000819050919050565b600061176b61176661176184611156565b611746565b611156565b9050919050565b6000819050919050565b61178583611750565b61179961179182611772565b8484546116f4565b825550505050565b600090565b6117ae6117a1565b6117b981848461177c565b505050565b5b818110156117dd576117d26000826117a6565b6001810190506117bf565b5050565b601f821115611822576117f3816116c2565b6117fc846116d7565b8101602085101561180b578190505b61181f611817856116d7565b8301826117be565b50505b505050565b600082821c905092915050565b600061184560001984600802611827565b1980831691505092915050565b600061185e8383611834565b9150826002028217905092915050565b61187782611032565b67ffffffffffffffff8111156118905761188f61134d565b5b61189a825461158a565b6118a58282856117e1565b600060209050601f8311600181146118d857600084156118c6578287015190505b6118d08582611852565b865550611938565b601f1984166118e6866116c2565b60005b8281101561190e578489015182556001820191506020850194506020810190506118e9565b8683101561192b5784890151611927601f891682611834565b8355505b6001600288020188555050505b505050505050565b7f41676772656761746564207570646174652063616e6e6f7420626520656d707460008201527f7900000000000000000000000000000000000000000000000000000000000000602082015250565b600061199c60218361103d565b91506119a782611940565b604082019050919050565b600060208201905081810360008301526119cb8161198f565b9050919050565b7f4e487b7100000000000000000000000000000000000000000000000000000000600052601160045260246000fd5b6000611a0c82611156565b91507fffffffffffffffffffffffffffffffffffffffffffffffffffffffffffffffff8203611a3e57611a3d6119d2565b5b600182019050919050565b6000606082019050611a5e6000830186611242565b611a6b6020830185611251565b611a786040830184611251565b949350505050565b6000602082019050611a956000830184611242565b92915050565b6000611aa682611156565b9150611ab183611156565b9250828201905080821115611ac957611ac86119d2565b5b9291505056fea2646970667358221220e10fb50aa37b27de1c535d138a9835a0415b7505afe8345b1155acb4d1bc333764736f6c634300081b0033",
  "linkReferences": {},
  "deployedLinkReferences": {}
}